:1000000012C019C018C017C016C015C014C013C044
:1000100012C011C010C00FC00EC00DC00CC00BC06C
:100020000AC009C008C011241FBECFE5D4E0DEBF5E
:10003000CDBF02D037C0E4CFA7E3B0E081E08C931E
:1000400014BAE1E3F0E08081816080838081826086
:1000500080838081846080838081886080838081C8
:10006000806180838C9180648C938C9180688C9368
:10007000E2E3F0E080818170808380818270808300
:10008000808184708083808188708083808180718A
:100090008083E8E3F0E080818074808380818078D1
:0800A0008083FFCFF894FFCF2D
:00000001FF
